{
  "contractName": "Polymarket",
  "abi": [
    {
      "inputs": [
        {
          "internalType": "address",
          "name": "_polyToken",
          "type": "address"
        }
      ],
      "stateMutability": "nonpayable",
      "type": "constructor"
    },
    {
      "anonymous": false,
      "inputs": [
        {
          "indexed": false,
          "internalType": "uint256",
          "name": "id",
          "type": "uint256"
        },
        {
          "indexed": false,
          "internalType": "string",
          "name": "market",
          "type": "string"
        },
        {
          "indexed": false,
          "internalType": "uint256",
          "name": "timestamp",
          "type": "uint256"
        },
        {
          "indexed": false,
          "internalType": "address",
          "name": "createdBy",
          "type": "address"
        },
        {
          "indexed": false,
          "internalType": "string",
          "name": "creatorImageHash",
          "type": "string"
        },
        {
          "indexed": false,
          "internalType": "uint256",
          "name": "totalAmount",
          "type": "uint256"
        },
        {
          "indexed": false,
          "internalType": "uint256",
          "name": "totalYesAmount",
          "type": "uint256"
        },
        {
          "indexed": false,
          "internalType": "uint256",
          "name": "totalNoAmount",
          "type": "uint256"
        }
      ],
      "name": "MarketCreated",
      "type": "event"
    },
    {
      "inputs": [
        {
          "internalType": "uint256",
          "name": "",
          "type": "uint256"
        }
      ],
      "name": "markets",
      "outputs": [
        {
          "internalType": "uint256",
          "name": "id",
          "type": "uint256"
        },
        {
          "internalType": "string",
          "name": "market",
          "type": "string"
        },
        {
          "internalType": "uint256",
          "name": "timestamp",
          "type": "uint256"
        },
        {
          "internalType": "uint256",
          "name": "endTimestamp",
          "type": "uint256"
        },
        {
          "internalType": "address",
          "name": "createdBy",
          "type": "address"
        },
        {
          "internalType": "string",
          "name": "creatorImageHash",
          "type": "string"
        },
        {
          "internalType": "uint256",
          "name": "totalAmount",
          "type": "uint256"
        },
        {
          "internalType": "uint256",
          "name": "totalYesAmount",
          "type": "uint256"
        },
        {
          "internalType": "uint256",
          "name": "totalNoAmount",
          "type": "uint256"
        },
        {
          "internalType": "bool",
          "name": "eventCompleted",
          "type": "bool"
        },
        {
          "internalType": "string",
          "name": "description",
          "type": "string"
        },
        {
          "internalType": "string",
          "name": "resolverUrl",
          "type": "string"
        }
      ],
      "stateMutability": "view",
      "type": "function"
    },
    {
      "inputs": [],
      "name": "owner",
      "outputs": [
        {
          "internalType": "address",
          "name": "",
          "type": "address"
        }
      ],
      "stateMutability": "view",
      "type": "function"
    },
    {
      "inputs": [],
      "name": "polyToken",
      "outputs": [
        {
          "internalType": "address",
          "name": "",
          "type": "address"
        }
      ],
      "stateMutability": "view",
      "type": "function"
    },
    {
      "inputs": [],
      "name": "totalMarkets",
      "outputs": [
        {
          "internalType": "uint256",
          "name": "",
          "type": "uint256"
        }
      ],
      "stateMutability": "view",
      "type": "function"
    },
    {
      "inputs": [
        {
          "internalType": "uint256",
          "name": "",
          "type": "uint256"
        }
      ],
      "name": "winningAddresses",
      "outputs": [
        {
          "internalType": "address",
          "name": "",
          "type": "address"
        }
      ],
      "stateMutability": "view",
      "type": "function"
    },
    {
      "inputs": [
        {
          "internalType": "address",
          "name": "",
          "type": "address"
        }
      ],
      "name": "winningAmount",
      "outputs": [
        {
          "internalType": "uint256",
          "name": "",
          "type": "uint256"
        }
      ],
      "stateMutability": "view",
      "type": "function"
    },
    {
      "inputs": [
        {
          "internalType": "string",
          "name": "_market",
          "type": "string"
        },
        {
          "internalType": "string",
          "name": "_creatorImageHash",
          "type": "string"
        },
        {
          "internalType": "string",
          "name": "_description",
          "type": "string"
        },
        {
          "internalType": "string",
          "name": "_resolverUrl",
          "type": "string"
        },
        {
          "internalType": "uint256",
          "name": "_endTimestamp",
          "type": "uint256"
        }
      ],
      "name": "createMarket",
      "outputs": [],
      "stateMutability": "nonpayable",
      "type": "function"
    },
    {
      "inputs": [
        {
          "internalType": "uint256",
          "name": "_marketId",
          "type": "uint256"
        },
        {
          "internalType": "uint256",
          "name": "_value",
          "type": "uint256"
        }
      ],
      "name": "addYesBet",
      "outputs": [],
      "stateMutability": "payable",
      "type": "function"
    },
    {
      "inputs": [
        {
          "internalType": "uint256",
          "name": "_marketId",
          "type": "uint256"
        },
        {
          "internalType": "uint256",
          "name": "_value",
          "type": "uint256"
        }
      ],
      "name": "addNoBet",
      "outputs": [],
      "stateMutability": "payable",
      "type": "function"
    },
    {
      "inputs": [
        {
          "internalType": "uint256",
          "name": "_marketId",
          "type": "uint256"
        }
      ],
      "name": "getGraphData",
      "outputs": [
        {
          "components": [
            {
              "internalType": "address",
              "name": "user",
              "type": "address"
            },
            {
              "internalType": "uint256",
              "name": "amount",
              "type": "uint256"
            },
            {
              "internalType": "uint256",
              "name": "timestamp",
              "type": "uint256"
            }
          ],
          "internalType": "struct Polymarket.AmountAdded[]",
          "name": "",
          "type": "tuple[]"
        },
        {
          "components": [
            {
              "internalType": "address",
              "name": "user",
              "type": "address"
            },
            {
              "internalType": "uint256",
              "name": "amount",
              "type": "uint256"
            },
            {
              "internalType": "uint256",
              "name": "timestamp",
              "type": "uint256"
            }
          ],
          "internalType": "struct Polymarket.AmountAdded[]",
          "name": "",
          "type": "tuple[]"
        }
      ],
      "stateMutability": "view",
      "type": "function"
    },
    {
      "inputs": [
        {
          "internalType": "uint256",
          "name": "_marketId",
          "type": "uint256"
        },
        {
          "internalType": "bool",
          "name": "eventOutcome",
          "type": "bool"
        }
      ],
      "name": "distributeWinningAmount",
      "outputs": [],
      "stateMutability": "payable",
      "type": "function"
    }
  ],
  "bytecode": "0x608060405260006002553480156200001657600080fd5b50604051620025433803806200254383398181016040528101906200003c91906200012e565b336000806101000a81548173ffffffffffffffffffffffffffffffffffffffff021916908373ffffffffffffffffffffffffffffffffffffffff16021790555080600160006101000a81548173ffffffffffffffffffffffffffffffffffffffff021916908373ffffffffffffffffffffffffffffffffffffffff1602179055505062000160565b600080fd5b600073ffffffffffffffffffffffffffffffffffffffff82169050919050565b6000620000f682620000c9565b9050919050565b6200010881620000e9565b81146200011457600080fd5b50565b6000815190506200012881620000fd565b92915050565b600060208284031215620001475762000146620000c4565b5b6000620001578482850162000117565b91505092915050565b6123d380620001706000396000f3fe60806040526004361061009c5760003560e01c80638da5cb5b116100645780638da5cb5b1461017a578063b1283e77146101a5578063b78d6c1d146101ed578063bf01fe001461022a578063da6b4db814610246578063eb3f75e2146102835761009c565b806314dd5762146100a15780633f4a5d0a146100df5780636faa22a514610108578063724ba40b146101335780638162486b1461014f575b600080fd5b3480156100ad57600080fd5b506100c860048036038101906100c391906117ac565b61029f565b6040516100d692919061191a565b60405180910390f35b3480156100eb57600080fd5b5061010660048036038101906101019190611a97565b610451565b005b34801561011457600080fd5b5061011d610645565b60405161012a9190611b91565b60405180910390f35b61014d60048036038101906101489190611be4565b61066b565b005b34801561015b57600080fd5b50610164610e44565b6040516101719190611c33565b60405180910390f35b34801561018657600080fd5b5061018f610e4a565b60405161019c9190611b91565b60405180910390f35b3480156101b157600080fd5b506101cc60048036038101906101c791906117ac565b610e6e565b6040516101e49c9b9a99989796959493929190611ce5565b60405180910390f35b3480156101f957600080fd5b50610214600480360381019061020f91906117ac565b61111b565b6040516102219190611b91565b60405180910390f35b610244600480360381019061023f9190611dbb565b61115a565b005b34801561025257600080fd5b5061026d60048036038101906102689190611e27565b6113f0565b60405161027a9190611c33565b60405180910390f35b61029d60048036038101906102989190611dbb565b611408565b005b6060806000600360008581526020019081526020016000209050806006018160070181805480602002602001604051908101604052809291908181526020016000905b8282101561037e57838290600052602060002090600302016040518060600160405290816000820160009054906101000a900473ffffffffffffffffffffffffffffffffffffffff1673ffffffffffffffffffffffffffffffffffffffff1673ffffffffffffffffffffffffffffffffffffffff16815260200160018201548152602001600282015481525050815260200190600101906102e2565b50505050915080805480602002602001604051908101604052809291908181526020016000905b8282101561044157838290600052602060002090600302016040518060600160405290816000820160009054906101000a900473ffffffffffffffffffffffffffffffffffffffff1673ffffffffffffffffffffffffffffffffffffffff1673ffffffffffffffffffffffffffffffffffffffff16815260200160018201548152602001600282015481525050815260200190600101906103a5565b5050505090509250925050915091565b60008054906101000a900473ffffffffffffffffffffffffffffffffffffffff1673ffffffffffffffffffffffffffffffffffffffff163373ffffffffffffffffffffffffffffffffffffffff16146104df576040517f08c379a00000000000000000000000000000000000000000000000000000000081526004016104d690611ea0565b60405180910390fd5b6000429050600060036000600254815260200190815260200160002090506002600081548092919061051090611eef565b9190505581600001819055508681600101908051906020019061053492919061169e565b50818160020181905550338160040160006101000a81548173ffffffffffffffffffffffffffffffffffffffff021916908373ffffffffffffffffffffffffffffffffffffffff1602179055508581600501908051906020019061059992919061169e565b506000816008018190555060008160090181905550600081600a01819055508481600c0190805190602001906105d092919061169e565b508381600d0190805190602001906105e992919061169e565b508281600301819055507fe51b4ce9e60c0c010fcdef22c23537f954e056004aed674362555a9d11d037386002548884338a6000806000604051610634989796959493929190611f7d565b60405180910390a150505050505050565b600160009054906101000a900473ffffffffffffffffffffffffffffffffffffffff1681565b60008054906101000a900473ffffffffffffffffffffffffffffffffffffffff1673ffffffffffffffffffffffffffffffffffffffff163373ffffffffffffffffffffffffffffffffffffffff16146106f9576040517f08c379a00000000000000000000000000000000000000000000000000000000081526004016106f090611ea0565b60405180910390fd5b60006003600084815260200190815260200160002090508115610a9e5760005b81600601805490508110156108ff576000826009015483600601838154811061074557610744612009565b5b90600052602060002090600302016001015484600a01546107669190612038565b61077091906120c1565b905082600601828154811061078857610787612009565b5b906000526020600020906003020160010154816107a591906120f2565b600460008560060185815481106107bf576107be612009565b5b906000526020600020906003020160000160009054906101000a900473ffffffffffffffffffffffffffffffffffffffff1673ffffffffffffffffffffffffffffffffffffffff1673ffffffffffffffffffffffffffffffffffffffff168152602001908152602001600020600082825461083a91906120f2565b92505081905550600583600601838154811061085957610858612009565b5b906000526020600020906003020160000160009054906101000a900473ffffffffffffffffffffffffffffffffffffffff169080600181540180825580915050600190039060005260206000200160009091909190916101000a81548173ffffffffffffffffffffffffffffffffffffffff021916908373ffffffffffffffffffffffffffffffffffffffff1602179055505080806108f790611eef565b915050610719565b5060005b600580549050811015610a8a5760006005828154811061092657610925612009565b5b9060005260206000200160009054906101000a900473ffffffffffffffffffffffffffffffffffffffff169050600160009054906101000a900473ffffffffffffffffffffffffffffffffffffffff1673ffffffffffffffffffffffffffffffffffffffff1663a9059cbb82600460008573ffffffffffffffffffffffffffffffffffffffff1673ffffffffffffffffffffffffffffffffffffffff168152602001908152602001600020546040518363ffffffff1660e01b81526004016109ef92919061219d565b6020604051808303816000875af1158015610a0e573d6000803e3d6000fd5b505050506040513d601f19601f82011682018060405250810190610a3291906121db565b50600460008273ffffffffffffffffffffffffffffffffffffffff1673ffffffffffffffffffffffffffffffffffffffff16815260200190815260200160002060009055508080610a8290611eef565b915050610903565b5060056000610a999190611724565b610e22565b60005b8160070180549050811015610c8757600082600a0154836007018381548110610acd57610acc612009565b5b9060005260206000209060030201600101548460090154610aee9190612038565b610af891906120c1565b9050826007018281548110610b1057610b0f612009565b5b90600052602060002090600302016001015481610b2d91906120f2565b60046000856007018581548110610b4757610b46612009565b5b906000526020600020906003020160000160009054906101000a900473ffffffffffffffffffffffffffffffffffffffff1673ffffffffffffffffffffffffffffffffffffffff1673ffffffffffffffffffffffffffffffffffffffff1681526020019081526020016000206000828254610bc291906120f2565b925050819055506005836007018381548110610be157610be0612009565b5b906000526020600020906003020160000160009054906101000a900473ffffffffffffffffffffffffffffffffffffffff169080600181540180825580915050600190039060005260206000200160009091909190916101000a81548173ffffffffffffffffffffffffffffffffffffffff021916908373ffffffffffffffffffffffffffffffffffffffff160217905550508080610c7f90611eef565b915050610aa1565b5060005b600580549050811015610e1257600060058281548110610cae57610cad612009565b5b9060005260206000200160009054906101000a900473ffffffffffffffffffffffffffffffffffffffff169050600160009054906101000a900473ffffffffffffffffffffffffffffffffffffffff1673ffffffffffffffffffffffffffffffffffffffff1663a9059cbb82600460008573ffffffffffffffffffffffffffffffffffffffff1673ffffffffffffffffffffffffffffffffffffffff168152602001908152602001600020546040518363ffffffff1660e01b8152600401610d7792919061219d565b6020604051808303816000875af1158015610d96573d6000803e3d6000fd5b505050506040513d601f19601f82011682018060405250810190610dba91906121db565b50600460008273ffffffffffffffffffffffffffffffffffffffff1673ffffffffffffffffffffffffffffffffffffffff16815260200190815260200160002060009055508080610e0a90611eef565b915050610c8b565b5060056000610e219190611724565b5b600181600b0160006101000a81548160ff021916908315150217905550505050565b60025481565b60008054906101000a900473ffffffffffffffffffffffffffffffffffffffff1681565b6003602052806000526040600020600091509050806000015490806001018054610e9790612237565b80601f0160208091040260200160405190810160405280929190818152602001828054610ec390612237565b8015610f105780601f10610ee557610100808354040283529160200191610f10565b820191906000526020600020905b815481529060010190602001808311610ef357829003601f168201915b5050505050908060020154908060030154908060040160009054906101000a900473ffffffffffffffffffffffffffffffffffffffff1690806005018054610f5790612237565b80601f0160208091040260200160405190810160405280929190818152602001828054610f8390612237565b8015610fd05780601f10610fa557610100808354040283529160200191610fd0565b820191906000526020600020905b815481529060010190602001808311610fb357829003601f168201915b50505050509080600801549080600901549080600a01549080600b0160009054906101000a900460ff169080600c01805461100a90612237565b80601f016020809104026020016040519081016040528092919081815260200182805461103690612237565b80156110835780601f1061105857610100808354040283529160200191611083565b820191906000526020600020905b81548152906001019060200180831161106657829003601f168201915b50505050509080600d01805461109890612237565b80601f01602080910402602001604051908101604052809291908181526020018280546110c490612237565b80156111115780601f106110e657610100808354040283529160200191611111565b820191906000526020600020905b8154815290600101906020018083116110f457829003601f168201915b505050505090508c565b6005818154811061112b57600080fd5b906000526020600020016000915054906101000a900473ffffffffffffffffffffffffffffffffffffffff1681565b600160009054906101000a900473ffffffffffffffffffffffffffffffffffffffff1673ffffffffffffffffffffffffffffffffffffffff1663dd62ed3e33306040518363ffffffff1660e01b81526004016111b7929190612269565b602060405180830381865afa1580156111d4573d6000803e3d6000fd5b505050506040513d601f19601f820116820180604052508101906111f891906122a7565b81111561123a576040517f08c379a000000000000000000000000000000000000000000000000000000000815260040161123190612346565b60405180910390fd5b6000600360008481526020019081526020016000209050600160009054906101000a900473ffffffffffffffffffffffffffffffffffffffff1673ffffffffffffffffffffffffffffffffffffffff166323b872dd3330856040518463ffffffff1660e01b81526004016112b093929190612366565b6020604051808303816000875af11580156112cf573d6000803e3d6000fd5b505050506040513d601f19601f820116820180604052508101906112f391906121db565b50600060405180606001604052803373ffffffffffffffffffffffffffffffffffffffff1681526020018481526020014281525090508282600a01600082825461133d91906120f2565b925050819055508282600801600082825461135891906120f2565b925050819055508160070181908060018154018082558091505060019003906000526020600020906003020160009091909190915060008201518160000160006101000a81548173ffffffffffffffffffffffffffffffffffffffff021916908373ffffffffffffffffffffffffffffffffffffffff1602179055506020820151816001015560408201518160020155505050505050565b60046020528060005260406000206000915090505481565b600160009054906101000a900473ffffffffffffffffffffffffffffffffffffffff1673ffffffffffffffffffffffffffffffffffffffff1663dd62ed3e33306040518363ffffffff1660e01b8152600401611465929190612269565b602060405180830381865afa158015611482573d6000803e3d6000fd5b505050506040513d601f19601f820116820180604052508101906114a691906122a7565b8111156114e8576040517f08c379a00000000000000000000000000000000000000000000000000000000081526004016114df90612346565b60405180910390fd5b6000600360008481526020019081526020016000209050600160009054906101000a900473ffffffffffffffffffffffffffffffffffffffff1673ffffffffffffffffffffffffffffffffffffffff166323b872dd3330856040518463ffffffff1660e01b815260040161155e93929190612366565b6020604051808303816000875af115801561157d573d6000803e3d6000fd5b505050506040513d601f19601f820116820180604052508101906115a191906121db565b50600060405180606001604052803373ffffffffffffffffffffffffffffffffffffffff168152602001848152602001428152509050828260090160008282546115eb91906120f2565b925050819055508282600801600082825461160691906120f2565b925050819055508160060181908060018154018082558091505060019003906000526020600020906003020160009091909190915060008201518160000160006101000a81548173ffffffffffffffffffffffffffffffffffffffff021916908373ffffffffffffffffffffffffffffffffffffffff1602179055506020820151816001015560408201518160020155505050505050565b8280546116aa90612237565b90600052602060002090601f0160209004810192826116cc5760008555611713565b82601f106116e557805160ff1916838001178555611713565b82800160010185558215611713579182015b828111156117125782518255916020019190600101906116f7565b5b5090506117209190611745565b5090565b50805460008255906000526020600020908101906117429190611745565b50565b5b8082111561175e576000816000905550600101611746565b5090565b6000604051905090565b600080fd5b600080fd5b6000819050919050565b61178981611776565b811461179457600080fd5b50565b6000813590506117a681611780565b92915050565b6000602082840312156117c2576117c161176c565b5b60006117d084828501611797565b91505092915050565b600081519050919050565b600082825260208201905092915050565b6000819050602082019050919050565b600073ffffffffffffffffffffffffffffffffffffffff82169050919050565b600061183082611805565b9050919050565b61184081611825565b82525050565b61184f81611776565b82525050565b60608201600082015161186b6000850182611837565b50602082015161187e6020850182611846565b5060408201516118916040850182611846565b50505050565b60006118a38383611855565b60608301905092915050565b6000602082019050919050565b60006118c7826117d9565b6118d181856117e4565b93506118dc836117f5565b8060005b8381101561190d5781516118f48882611897565b97506118ff836118af565b9250506001810190506118e0565b5085935050505092915050565b6000604082019050818103600083015261193481856118bc565b9050818103602083015261194881846118bc565b90509392505050565b600080fd5b600080fd5b6000601f19601f8301169050919050565b7f4e487b7100000000000000000000000000000000000000000000000000000000600052604160045260246000fd5b6119a48261195b565b810181811067ffffffffffffffff821117156119c3576119c261196c565b5b80604052505050565b60006119d6611762565b90506119e2828261199b565b919050565b600067ffffffffffffffff821115611a0257611a0161196c565b5b611a0b8261195b565b9050602081019050919050565b82818337600083830152505050565b6000611a3a611a35846119e7565b6119cc565b905082815260208101848484011115611a5657611a55611956565b5b611a61848285611a18565b509392505050565b600082601f830112611a7e57611a7d611951565b5b8135611a8e848260208601611a27565b91505092915050565b600080600080600060a08688031215611ab357611ab261176c565b5b600086013567ffffffffffffffff811115611ad157611ad0611771565b5b611add88828901611a69565b955050602086013567ffffffffffffffff811115611afe57611afd611771565b5b611b0a88828901611a69565b945050604086013567ffffffffffffffff811115611b2b57611b2a611771565b5b611b3788828901611a69565b935050606086013567ffffffffffffffff811115611b5857611b57611771565b5b611b6488828901611a69565b9250506080611b7588828901611797565b9150509295509295909350565b611b8b81611825565b82525050565b6000602082019050611ba66000830184611b82565b92915050565b60008115159050919050565b611bc181611bac565b8114611bcc57600080fd5b50565b600081359050611bde81611bb8565b92915050565b60008060408385031215611bfb57611bfa61176c565b5b6000611c0985828601611797565b9250506020611c1a85828601611bcf565b9150509250929050565b611c2d81611776565b82525050565b6000602082019050611c486000830184611c24565b92915050565b600081519050919050565b600082825260208201905092915050565b60005b83811015611c88578082015181840152602081019050611c6d565b83811115611c97576000848401525b50505050565b6000611ca882611c4e565b611cb28185611c59565b9350611cc2818560208601611c6a565b611ccb8161195b565b840191505092915050565b611cdf81611bac565b82525050565b600061018082019050611cfb600083018f611c24565b8181036020830152611d0d818e611c9d565b9050611d1c604083018d611c24565b611d29606083018c611c24565b611d36608083018b611b82565b81810360a0830152611d48818a611c9d565b9050611d5760c0830189611c24565b611d6460e0830188611c24565b611d72610100830187611c24565b611d80610120830186611cd6565b818103610140830152611d938185611c9d565b9050818103610160830152611da88184611c9d565b90509d9c50505050505050505050505050565b60008060408385031215611dd257611dd161176c565b5b6000611de085828601611797565b9250506020611df185828601611797565b9150509250929050565b611e0481611825565b8114611e0f57600080fd5b50565b600081359050611e2181611dfb565b92915050565b600060208284031215611e3d57611e3c61176c565b5b6000611e4b84828501611e12565b91505092915050565b7f556e617574686f72697a65640000000000000000000000000000000000000000600082015250565b6000611e8a600c83611c59565b9150611e9582611e54565b602082019050919050565b60006020820190508181036000830152611eb981611e7d565b9050919050565b7f4e487b7100000000000000000000000000000000000000000000000000000000600052601160045260246000fd5b6000611efa82611776565b91507fffffffffffffffffffffffffffffffffffffffffffffffffffffffffffffffff821415611f2d57611f2c611ec0565b5b600182019050919050565b6000819050919050565b6000819050919050565b6000611f67611f62611f5d84611f38565b611f42565b611776565b9050919050565b611f7781611f4c565b82525050565b600061010082019050611f93600083018b611c24565b8181036020830152611fa5818a611c9d565b9050611fb46040830189611c24565b611fc16060830188611b82565b8181036080830152611fd38187611c9d565b9050611fe260a0830186611f6e565b611fef60c0830185611f6e565b611ffc60e0830184611f6e565b9998505050505050505050565b7f4e487b7100000000000000000000000000000000000000000000000000000000600052603260045260246000fd5b600061204382611776565b915061204e83611776565b9250817fffffffffffffffffffffffffffffffffffffffffffffffffffffffffffffffff048311821515161561208757612086611ec0565b5b828202905092915050565b7f4e487b7100000000000000000000000000000000000000000000000000000000600052601260045260246000fd5b60006120cc82611776565b91506120d783611776565b9250826120e7576120e6612092565b5b828204905092915050565b60006120fd82611776565b915061210883611776565b9250827fffffffffffffffffffffffffffffffffffffffffffffffffffffffffffffffff0382111561213d5761213c611ec0565b5b828201905092915050565b600061216361215e61215984611805565b611f42565b611805565b9050919050565b600061217582612148565b9050919050565b60006121878261216a565b9050919050565b6121978161217c565b82525050565b60006040820190506121b2600083018561218e565b6121bf6020830184611c24565b9392505050565b6000815190506121d581611bb8565b92915050565b6000602082840312156121f1576121f061176c565b5b60006121ff848285016121c6565b91505092915050565b7f4e487b7100000000000000000000000000000000000000000000000000000000600052602260045260246000fd5b6000600282049050600182168061224f57607f821691505b6020821081141561226357612262612208565b5b50919050565b600060408201905061227e6000830185611b82565b61228b6020830184611b82565b9392505050565b6000815190506122a181611780565b92915050565b6000602082840312156122bd576122bc61176c565b5b60006122cb84828501612292565b91505092915050565b7f4e6f7420616c6c6f77656420746f207370656e64207468697320616d6f756e7460008201527f2e00000000000000000000000000000000000000000000000000000000000000602082015250565b6000612330602183611c59565b915061233b826122d4565b604082019050919050565b6000602082019050818103600083015261235f81612323565b9050919050565b600060608201905061237b6000830186611b82565b6123886020830185611b82565b6123956040830184611c24565b94935050505056fea26469706673582212207d19238a4297716d083c8dd81d757624fe5792ed8d040ec5431e6241f879b4a664736f6c634300080b0033",
  "immutableReferences": {},
  "source": "// SPDX-License-Identifier: MIT\r\npragma solidity ^0.8.6;\r\nimport \"@openzeppelin/contracts/token/ERC20/ERC20.sol\";\r\n\r\ncontract Polymarket {\r\n    address public owner;\r\n    address public polyToken;\r\n\r\n    uint256 public totalMarkets = 0;\r\n    constructor(address _polyToken) {\r\n        owner = msg.sender;\r\n        polyToken = _polyToken;\r\n    }\r\n    mapping(uint256 => Markets) public markets;\r\n\r\n    struct Markets {\r\n        uint256 id;\r\n        string  market;\r\n        uint256 timestamp;\r\n        uint256 endTimestamp;\r\n        address createdBy;\r\n        string creatorImageHash;\r\n        AmountAdded[] yesCount;\r\n        AmountAdded[] noCount;\r\n        uint256 totalAmount;\r\n        uint256 totalYesAmount;\r\n        uint256 totalNoAmount;\r\n        bool eventCompleted;\r\n        string description;\r\n        string resolverUrl;\r\n    }\r\n\r\n    struct AmountAdded {\r\n        address user;\r\n        uint256 amount;\r\n        uint256 timestamp;\r\n    }\r\n\r\n    mapping(address => uint256) public winningAmount;\r\n    address[] public winningAddresses;\r\n    \r\n    event MarketCreated(\r\n        uint256 id,\r\n        string market,\r\n        uint256 timestamp,\r\n        address createdBy,\r\n        string creatorImageHash,\r\n        uint256 totalAmount,\r\n        uint256 totalYesAmount,\r\n        uint256 totalNoAmount\r\n    );\r\n\r\n    function createMarket(\r\n        string memory _market,\r\n        string memory _creatorImageHash,\r\n        string memory _description,\r\n        string memory _resolverUrl,\r\n        uint256 _endTimestamp\r\n    ) public {\r\n        require(msg.sender == owner, \"Unauthorized\");\r\n        uint256 timestamp = block.timestamp;\r\n\r\n        Markets storage market = markets[totalMarkets];\r\n        market.id = totalMarkets++;\r\n        market.market = _market;\r\n        market.timestamp = timestamp;\r\n        market.createdBy = msg.sender;\r\n        market.creatorImageHash = _creatorImageHash;\r\n        market.totalAmount = 0;\r\n        market.totalYesAmount = 0;\r\n        market.totalNoAmount = 0;\r\n        market.description = _description;\r\n        market.resolverUrl = _resolverUrl;\r\n        market.endTimestamp = _endTimestamp;\r\n\r\n        emit MarketCreated(\r\n            totalMarkets,\r\n            _market,\r\n            timestamp,\r\n            msg.sender,\r\n            _creatorImageHash,\r\n            0,\r\n            0,\r\n            0\r\n        );\r\n    }\r\n    function addYesBet(uint256 _marketId, uint256 _value) public payable {\r\n        require(_value <= ERC20(polyToken).allowance(msg.sender, address(this)), \"Not allowed to spend this amount.\");\r\n        Markets storage market = markets[_marketId];\r\n        ERC20(polyToken).transferFrom(msg.sender, address(this), _value);\r\n        AmountAdded memory amountAdded = AmountAdded(\r\n            msg.sender,\r\n            _value,\r\n            block.timestamp\r\n        );\r\n\r\n        market.totalYesAmount += _value;\r\n        market.totalAmount += _value;\r\n        market.yesCount.push(amountAdded);\r\n    }\r\n\r\n    function addNoBet(uint256 _marketId, uint256 _value) public payable {\r\n        require(_value <= ERC20(polyToken).allowance(msg.sender, address(this)), \"Not allowed to spend this amount.\");\r\n        Markets storage market = markets[_marketId];\r\n        ERC20(polyToken).transferFrom(msg.sender, address(this), _value);\r\n        AmountAdded memory amountAdded = AmountAdded(\r\n            msg.sender,\r\n            _value,\r\n            block.timestamp\r\n        );\r\n\r\n        market.totalNoAmount += _value;\r\n        market.totalAmount += _value;\r\n        market.noCount.push(amountAdded);\r\n    }\r\n    function getGraphData(uint256 _marketId)\r\n        public\r\n        view\r\n        returns (AmountAdded[] memory, AmountAdded[] memory)\r\n    {\r\n        Markets storage market = markets[_marketId];\r\n        return (market.yesCount, market.noCount);\r\n    }\r\n    function distributeWinningAmount(uint256 _marketId, bool eventOutcome)\r\n        public\r\n        payable\r\n    {\r\n        require(msg.sender == owner, \"Unauthorized\");\r\n\r\n        Markets storage market = markets[_marketId];\r\n        if (eventOutcome) {\r\n            for (uint256 i = 0; i < market.yesCount.length; i++) {\r\n                uint256 amount = (market.totalNoAmount *\r\n                    market.yesCount[i].amount) / market.totalYesAmount;\r\n                winningAmount[market.yesCount[i].user] += (amount +\r\n                    market.yesCount[i].amount);\r\n                winningAddresses.push(market.yesCount[i].user);\r\n            }\r\n\r\n            for (uint256 i = 0; i < winningAddresses.length; i++) {\r\n                address payable _address = payable(winningAddresses[i]);\r\n                ERC20(polyToken).transfer(_address, winningAmount[_address]);\r\n                delete winningAmount[_address];\r\n            }\r\n            delete winningAddresses;\r\n        } else {\r\n            for (uint256 i = 0; i < market.noCount.length; i++) {\r\n                uint256 amount = (market.totalYesAmount *\r\n                    market.noCount[i].amount) / market.totalNoAmount;\r\n                winningAmount[market.noCount[i].user] += (amount +\r\n                    market.noCount[i].amount);\r\n                winningAddresses.push(market.noCount[i].user);\r\n            }\r\n\r\n            for (uint256 i = 0; i < winningAddresses.length; i++) {\r\n                address payable _address = payable(winningAddresses[i]);\r\n                ERC20(polyToken).transfer(_address, winningAmount[_address]);\r\n                delete winningAmount[_address];\r\n            }\r\n            delete winningAddresses;\r\n        }\r\n        market.eventCompleted = true;\r\n    }\r\n}",
  "sourcePath": "C:\\Users\\divij\\polygroww\\contracts\\Polymarket.sol",
  "compiler": {
    "name": "solc",
    "version": "0.8.11+commit.d7f03943.Emscripten.clang"
  },
  "schemaVersion": "3.4.4",
  "updatedAt": "2022-02-12T17:15:00.996Z",
  "devdoc": {
    "kind": "dev",
    "methods": {},
    "version": 1
  },
  "userdoc": {
    "kind": "user",
    "methods": {},
    "version": 1
  }
}